{
  "_format": "hh-sol-artifact-1",
  "contractName": "LearnToEarnCertificate",
  "sourceName": "contracts/LearnToEarnCertificate.sol",
  "abi": [
    {
      "inputs": [
        {
          "internalType": "address",
          "name": "caller",
          "type": "address"
        }
      ],
      "name": "IValidCaller",
      "type": "error"
    },
    {
      "inputs": [
        {
          "internalType": "address",
          "name": "caller",
          "type": "address"
        }
      ],
      "name": "OnlyAdminCanCall",
      "type": "error"
    },
    {
      "inputs": [],
      "name": "PoolIsEnded",
      "type": "error"
    },
    {
      "inputs": [],
      "name": "PoolIsNotEndedYet",
      "type": "error"
    },
    {
      "inputs": [],
      "name": "UserJoinedPoolBefore",
      "type": "error"
    },
    {
      "anonymous": false,
      "inputs": [
        {
          "indexed": true,
          "internalType": "address",
          "name": "owner",
          "type": "address"
        },
        {
          "indexed": true,
          "internalType": "address",
          "name": "approved",
          "type": "address"
        },
        {
          "indexed": true,
          "internalType": "uint256",
          "name": "tokenId",
          "type": "uint256"
        }
      ],
      "name": "Approval",
      "type": "event"
    },
    {
      "anonymous": false,
      "inputs": [
        {
          "indexed": true,
          "internalType": "address",
          "name": "owner",
          "type": "address"
        },
        {
          "indexed": true,
          "internalType": "address",
          "name": "operator",
          "type": "address"
        },
        {
          "indexed": false,
          "internalType": "bool",
          "name": "approved",
          "type": "bool"
        }
      ],
      "name": "ApprovalForAll",
      "type": "event"
    },
    {
      "anonymous": false,
      "inputs": [
        {
          "indexed": false,
          "internalType": "uint8",
          "name": "version",
          "type": "uint8"
        }
      ],
      "name": "Initialized",
      "type": "event"
    },
    {
      "anonymous": false,
      "inputs": [
        {
          "indexed": true,
          "internalType": "address",
          "name": "receipt",
          "type": "address"
        },
        {
          "indexed": false,
          "internalType": "uint256",
          "name": "id",
          "type": "uint256"
        }
      ],
      "name": "LearnToEarnCertificateCreated",
      "type": "event"
    },
    {
      "anonymous": false,
      "inputs": [
        {
          "indexed": true,
          "internalType": "address",
          "name": "previousOwner",
          "type": "address"
        },
        {
          "indexed": true,
          "internalType": "address",
          "name": "newOwner",
          "type": "address"
        }
      ],
      "name": "OwnershipTransferred",
      "type": "event"
    },
    {
      "anonymous": false,
      "inputs": [
        {
          "indexed": false,
          "internalType": "uint256",
          "name": "id",
          "type": "uint256"
        },
        {
          "indexed": false,
          "internalType": "string",
          "name": "name",
          "type": "string"
        },
        {
          "indexed": false,
          "internalType": "uint256",
          "name": "startDate",
          "type": "uint256"
        },
        {
          "indexed": false,
          "internalType": "uint256",
          "name": "endDate",
          "type": "uint256"
        },
        {
          "indexed": false,
          "internalType": "bool",
          "name": "end",
          "type": "bool"
        },
        {
          "indexed": false,
          "internalType": "string[]",
          "name": "questions",
          "type": "string[]"
        }
      ],
      "name": "PoolCreatedEvent",
      "type": "event"
    },
    {
      "anonymous": false,
      "inputs": [
        {
          "indexed": false,
          "internalType": "uint256",
          "name": "id",
          "type": "uint256"
        }
      ],
      "name": "PoolEnded",
      "type": "event"
    },
    {
      "anonymous": false,
      "inputs": [
        {
          "indexed": true,
          "internalType": "address",
          "name": "user",
          "type": "address"
        },
        {
          "indexed": false,
          "internalType": "uint256",
          "name": "poolId",
          "type": "uint256"
        },
        {
          "indexed": false,
          "internalType": "string",
          "name": "question",
          "type": "string"
        },
        {
          "indexed": false,
          "internalType": "string",
          "name": "answer",
          "type": "string"
        }
      ],
      "name": "QuizQuestionCreated",
      "type": "event"
    },
    {
      "anonymous": false,
      "inputs": [
        {
          "indexed": true,
          "internalType": "address",
          "name": "from",
          "type": "address"
        },
        {
          "indexed": true,
          "internalType": "address",
          "name": "to",
          "type": "address"
        },
        {
          "indexed": true,
          "internalType": "uint256",
          "name": "tokenId",
          "type": "uint256"
        }
      ],
      "name": "Transfer",
      "type": "event"
    },
    {
      "inputs": [
        {
          "internalType": "address",
          "name": "to",
          "type": "address"
        },
        {
          "internalType": "uint256",
          "name": "tokenId",
          "type": "uint256"
        }
      ],
      "name": "approve",
      "outputs": [],
      "stateMutability": "nonpayable",
      "type": "function"
    },
    {
      "inputs": [
        {
          "internalType": "address",
          "name": "owner",
          "type": "address"
        }
      ],
      "name": "balanceOf",
      "outputs": [
        {
          "internalType": "uint256",
          "name": "",
          "type": "uint256"
        }
      ],
      "stateMutability": "view",
      "type": "function"
    },
    {
      "inputs": [
        {
          "internalType": "string",
          "name": "_name",
          "type": "string"
        },
        {
          "internalType": "uint256",
          "name": "_startDate",
          "type": "uint256"
        },
        {
          "internalType": "uint256",
          "name": "_endDate",
          "type": "uint256"
        },
        {
          "internalType": "string[]",
          "name": "_questions",
          "type": "string[]"
        },
        {
          "internalType": "uint256",
          "name": "_passedScore",
          "type": "uint256"
        }
      ],
      "name": "createPool",
      "outputs": [],
      "stateMutability": "nonpayable",
      "type": "function"
    },
    {
      "inputs": [
        {
          "internalType": "uint256",
          "name": "_poolId",
          "type": "uint256"
        },
        {
          "internalType": "string[]",
          "name": "answers",
          "type": "string[]"
        }
      ],
      "name": "drawPool",
      "outputs": [],
      "stateMutability": "nonpayable",
      "type": "function"
    },
    {
      "inputs": [
        {
          "internalType": "uint256",
          "name": "tokenId",
          "type": "uint256"
        }
      ],
      "name": "getApproved",
      "outputs": [
        {
          "internalType": "address",
          "name": "",
          "type": "address"
        }
      ],
      "stateMutability": "view",
      "type": "function"
    },
    {
      "inputs": [],
      "name": "initialize",
      "outputs": [],
      "stateMutability": "nonpayable",
      "type": "function"
    },
    {
      "inputs": [
        {
          "internalType": "address",
          "name": "owner",
          "type": "address"
        },
        {
          "internalType": "address",
          "name": "operator",
          "type": "address"
        }
      ],
      "name": "isApprovedForAll",
      "outputs": [
        {
          "internalType": "bool",
          "name": "",
          "type": "bool"
        }
      ],
      "stateMutability": "view",
      "type": "function"
    },
    {
      "inputs": [],
      "name": "name",
      "outputs": [
        {
          "internalType": "string",
          "name": "",
          "type": "string"
        }
      ],
      "stateMutability": "view",
      "type": "function"
    },
    {
      "inputs": [],
      "name": "owner",
      "outputs": [
        {
          "internalType": "address",
          "name": "",
          "type": "address"
        }
      ],
      "stateMutability": "view",
      "type": "function"
    },
    {
      "inputs": [
        {
          "internalType": "uint256",
          "name": "tokenId",
          "type": "uint256"
        }
      ],
      "name": "ownerOf",
      "outputs": [
        {
          "internalType": "address",
          "name": "",
          "type": "address"
        }
      ],
      "stateMutability": "view",
      "type": "function"
    },
    {
      "inputs": [],
      "name": "renounceOwnership",
      "outputs": [],
      "stateMutability": "nonpayable",
      "type": "function"
    },
    {
      "inputs": [
        {
          "internalType": "address",
          "name": "from",
          "type": "address"
        },
        {
          "internalType": "address",
          "name": "to",
          "type": "address"
        },
        {
          "internalType": "uint256",
          "name": "tokenId",
          "type": "uint256"
        }
      ],
      "name": "safeTransferFrom",
      "outputs": [],
      "stateMutability": "nonpayable",
      "type": "function"
    },
    {
      "inputs": [
        {
          "internalType": "address",
          "name": "from",
          "type": "address"
        },
        {
          "internalType": "address",
          "name": "to",
          "type": "address"
        },
        {
          "internalType": "uint256",
          "name": "tokenId",
          "type": "uint256"
        },
        {
          "internalType": "bytes",
          "name": "data",
          "type": "bytes"
        }
      ],
      "name": "safeTransferFrom",
      "outputs": [],
      "stateMutability": "nonpayable",
      "type": "function"
    },
    {
      "inputs": [
        {
          "internalType": "address",
          "name": "_admin",
          "type": "address"
        }
      ],
      "name": "setAdmin",
      "outputs": [],
      "stateMutability": "nonpayable",
      "type": "function"
    },
    {
      "inputs": [
        {
          "internalType": "address",
          "name": "operator",
          "type": "address"
        },
        {
          "internalType": "bool",
          "name": "approved",
          "type": "bool"
        }
      ],
      "name": "setApprovalForAll",
      "outputs": [],
      "stateMutability": "nonpayable",
      "type": "function"
    },
    {
      "inputs": [
        {
          "internalType": "uint256",
          "name": "_poolId",
          "type": "uint256"
        },
        {
          "internalType": "string[]",
          "name": "_answers",
          "type": "string[]"
        }
      ],
      "name": "submitAnswer",
      "outputs": [],
      "stateMutability": "nonpayable",
      "type": "function"
    },
    {
      "inputs": [
        {
          "internalType": "bytes4",
          "name": "interfaceId",
          "type": "bytes4"
        }
      ],
      "name": "supportsInterface",
      "outputs": [
        {
          "internalType": "bool",
          "name": "",
          "type": "bool"
        }
      ],
      "stateMutability": "view",
      "type": "function"
    },
    {
      "inputs": [],
      "name": "symbol",
      "outputs": [
        {
          "internalType": "string",
          "name": "",
          "type": "string"
        }
      ],
      "stateMutability": "view",
      "type": "function"
    },
    {
      "inputs": [
        {
          "internalType": "uint256",
          "name": "tokenId",
          "type": "uint256"
        }
      ],
      "name": "tokenURI",
      "outputs": [
        {
          "internalType": "string",
          "name": "",
          "type": "string"
        }
      ],
      "stateMutability": "view",
      "type": "function"
    },
    {
      "inputs": [
        {
          "internalType": "address",
          "name": "from",
          "type": "address"
        },
        {
          "internalType": "address",
          "name": "to",
          "type": "address"
        },
        {
          "internalType": "uint256",
          "name": "tokenId",
          "type": "uint256"
        }
      ],
      "name": "transferFrom",
      "outputs": [],
      "stateMutability": "nonpayable",
      "type": "function"
    },
    {
      "inputs": [
        {
          "internalType": "address",
          "name": "newOwner",
          "type": "address"
        }
      ],
      "name": "transferOwnership",
      "outputs": [],
      "stateMutability": "nonpayable",
      "type": "function"
    }
  ],
  "bytecode": "0x608080604052346100165761278d908161001c8239f35b600080fdfe608080604052600436101561001357600080fd5b60003560e01c90816301ffc9a714611e085750806306fdde0314611d62578063081812fc14611d44578063095ea7b314611bca5780630b658a7d146116b557806323b872dd1461168c57806342842e0e14611664578063631c05a5146110365780636352211e14611006578063704b6c0214610fc157806370a0823114610f2a578063715018a614610ecd5780638129fc1c14610ac15780638da5cb5b14610a9857806395d89b41146109b6578063a22cb465146108e4578063b88d4fde14610885578063c87b56dd14610814578063e985e9c5146107be578063f2fde38b1461072f5763ff2a24231461010657600080fd5b3461072a5761011436612045565b8160005260ce6020526004604060002001548151036106e557600082815260ce60205260409020600301546001600160a01b039190821633146106cd578260005260ce60205260ff60036040600020015460a01c166106bb5760cb549260005b84811061066d575081519361018885611f3e565b946101966040519687611f1d565b8086526101a5601f1991611f3e565b0160005b81811061064957505060005b83518110156102d8578260005260ce602052600460406000200180548210156102c257600052806020600020016101ec82866126f7565b51604051916101fa83611ee7565b6040519060009080549061020d826121b9565b808552916001811690811561029b5750600114610261575b50509061023a8161025c969594930382611f1d565b8252602082015261024b82896126f7565b5261025681886126f7565b506126e8565b6101b5565b6000908152602081209092505b818310610285575050810160200161023a82610225565b600181602092548386880101520192019161026e565b60ff191660208087019190915292151560051b8501909201925061023a9150839050610225565b634e487b7160e01b600052603260045260246000fd5b509291506040519160608301938385106001600160401b0386111761051957600294604052338452602084019283526040840195865260005260cf60205260406000209251166001600160601b0360a01b835416178255516001820155019051805190600160401b82116105195782548284558083106105d9575b50602001916000526020600020916000905b8282106103925761038d61037a60cd546126e8565b61038560cb546126e8565b60cb556126e8565b60cd55005b805180518051906001600160401b038211610519576103b187546121b9565b601f81116105a7575b50602090601f831160011461053a5760209392916000918361052f575b50508160011b916000199060031b1c19161786555b01518051906001600160401b0382116105195761040c60018701546121b9565b601f81116104d9575b50602090601f8311600114610464579282600293602093600196600092610459575b5050600019600383901b1c191690851b17878501555b01940191019092610365565b015190503880610437565b906001870160005260206000209160005b601f19851681106104c1575083602093600196938793600297601f198116106104a8575b505050811b018488015561044d565b015160001960f88460031b161c19169055388080610499565b91926020600181928685015181550194019201610475565b610509906001880160005260206000206005601f8601811c8201926020871061050f575b601f01901c0190612688565b38610415565b91925082916104fd565b634e487b7160e01b600052604160045260246000fd5b0151905038806103d7565b908760005260206000209160005b601f198516811061058f575091839160019360209695601f19811610610576575b505050811b0186556103ec565b015160001960f88460031b161c19169055388080610569565b91926020600181928685015181550194019201610548565b6105d3908860005260206000206005601f8601811c8201926020871061050f57601f01901c0190612688565b386103ba565b6001600160ff1b0381811682036106335783168303610633578360005260206000209060011b8101908360011b015b8181106106155750610353565b8061062160029261269f565b61062d6001820161269f565b01610608565b634e487b7160e01b600052601160045260246000fd5b60209060405161065881611ee7565b60608082528382015282828a010152016101a9565b8060005260cf60205260406000208260018201541490816106ae575b5061069c57610697906126e8565b610174565b604051634203a3b360e01b8152600490fd5b5485163314905038610689565b60405163ac8d1c5b60e01b8152600490fd5b604051633543aaa960e11b8152336004820152602490fd5b60405162461bcd60e51b815260206004820152601960248201527f496e76616c6964206e756d626572206f6620616e7377657273000000000000006044820152606490fd5b600080fd5b3461072a57602036600319011261072a57610748611ebb565b6107506120a9565b6001600160a01b0381161561076a5761076890612101565b005b60405162461bcd60e51b815260206004820152602660248201527f4f776e61626c653a206e6577206f776e657220697320746865207a65726f206160448201526564647265737360d01b6064820152608490fd5b3461072a57604036600319011261072a576107d7611ebb565b6107df611ed1565b9060018060a01b03809116600052606a60205260406000209116600052602052602060ff604060002054166040519015158152f35b3461072a57602036600319011261072a5760043560009081526067602052604090205461084b906001600160a01b0316151561214a565b600060405161085981611f02565b5261088160405161086981611f02565b60008152604051918291602083526020830190611e96565b0390f35b3461072a57608036600319011261072a5761089e611ebb565b6108a6611ed1565b606435916001600160401b03831161072a573660238401121561072a576108da610768933690602481600401359101611f70565b9160443591612293565b3461072a57604036600319011261072a576108fd611ebb565b6024359081151580920361072a576001600160a01b0316903382146109715733600052606a602052604060002082600052602052604060002060ff1981541660ff83161790556040519081527f17307eab39ab6107e8899845ad3d59bd9653f200f220920489ca2b5937696c3160203392a3005b60405162461bcd60e51b815260206004820152601960248201527f4552433732313a20617070726f766520746f2063616c6c6572000000000000006044820152606490fd5b3461072a57600036600319011261072a5760405160006066546109d8816121b9565b80845290600190818116908115610a715750600114610a16575b61088184610a0281860382611f1d565b604051918291602083526020830190611e96565b6066600090815292507f46501879b8ca8525e8c2fd519e2fbfcfa2ebea26501294aa02cbfcfb12e943545b828410610a59575050508101602001610a02826109f2565b80546020858701810191909152909301928101610a41565b60ff191660208087019190915292151560051b85019092019250610a0291508390506109f2565b3461072a57600036600319011261072a576097546040516001600160a01b039091168152602090f35b3461072a57600036600319011261072a5760005460ff8160081c161590818092610ec0575b8015610ea9575b15610e4d57600190828260ff19831617600055610e3b575b50610b2060ff60005460081c16610b1b81612628565b612628565b610b2933612101565b60405191610b3683611ee7565b601983526020907f4c6561726e20746f204561726e2043657274696669636174650000000000000082850152604051610b6e81611ee7565b60038152624c324560e81b83820152610b9260ff60005460081c16610b1b81612628565b8451906001600160401b03918281116105195780610bb16065546121b9565b97601f98898111610def575b508690898311600114610d6d57600092610d62575b5050600019600383901b1c191690861b176065555b805191821161051957610bfb6066546121b9565b868111610d0c575b5083958211600114610c8b57948192939495600092610c80575b5050600019600383901b1c191690841b176066555b600060ca55600060cb558260cc558260cd55610c4a57005b7f7f26b83ff96e1f2b6a682f133852f6798a09c465da95921460cefb38474024989161ff001960005416600055604051908152a1005b015190508580610c1d565b601f1982169560666000527f46501879b8ca8525e8c2fd519e2fbfcfa2ebea26501294aa02cbfcfb12e943549160005b888110610cf757508387989795969710610cde575b505050811b01606655610c32565b015160001960f88460031b161c19169055858080610cd0565b81830151845592870192918601918601610cbb565b610d539060666000527f46501879b8ca8525e8c2fd519e2fbfcfa2ebea26501294aa02cbfcfb12e943548880860160051c820192888710610d59575b0160051c0190612688565b86610c03565b92508192610d48565b015190508880610bd2565b90889350601f1983169160656000527f8ff97419363ffd7000167f130ef7168fbea05faf9251824ca5043f113cc6a7c79260005b8a828210610dd95750508411610dc0575b505050811b01606555610be7565b015160001960f88460031b161c19169055888080610db2565b8385015186558c97909501949384019301610da1565b610e359060656000527f8ff97419363ffd7000167f130ef7168fbea05faf9251824ca5043f113cc6a7c78b80860160051c8201928b8710610d59570160051c0190612688565b89610bbd565b61ffff19166101011760005582610b05565b60405162461bcd60e51b815260206004820152602e60248201527f496e697469616c697a61626c653a20636f6e747261637420697320616c72656160448201526d191e481a5b9a5d1a585b1a5e995960921b6064820152608490fd5b50303b158015610aed5750600160ff821614610aed565b50600160ff821610610ae6565b3461072a57600036600319011261072a57610ee66120a9565b609780546001600160a01b031981169091556000906001600160a01b03167f8be0079c531659141344cd1fd0a4f28419497f9722a3daafe3b4186f6b6457e08280a3005b3461072a57602036600319011261072a576001600160a01b03610f4b611ebb565b168015610f6a5760005260686020526020604060002054604051908152f35b60405162461bcd60e51b815260206004820152602960248201527f4552433732313a2061646472657373207a65726f206973206e6f7420612076616044820152683634b21037bbb732b960b91b6064820152608490fd5b3461072a57602036600319011261072a57610fda611ebb565b610fe26120a9565b6001600160a01b0316600090815260c960205260409020805460ff19166001179055005b3461072a57602036600319011261072a576020611024600435612196565b6040516001600160a01b039091168152f35b3461072a5760a036600319011261072a576004356001600160401b03811161072a57611066903690600401611fa7565b6064356001600160401b03811161072a57611085903690600401611fc5565b903360005260c960205260ff604060002054161561164c576040516110a981611f02565b600081526040519061010082018281106001600160401b038211176105195760405282825260243560208301526044356040830152336060830152600060808301528360a083015260c082015260843560e082015260cc5460005260ce60205260406000209080518051906001600160401b03821161051957819061112e85546121b9565b601f811161161a575b50602090601f83116001146115ae576000926115a3575b50508160011b916000199060031b1c19161782555b60208101516001830155604081015160028301556003820160018060a01b0360608301511681549060ff60a01b6080850151151560a01b16916affffffffffffffffffffff60a81b161717905560a0810151805190600160401b8211610519576004840154826004860155808310611570575b5060200190600484016000526020600020916000905b82821061145b575050505060c0810151805190600160401b8211610519576005840154826005860155808310611428575b5060200190600584016000526020600020916000905b828210611308575050505060e0600691015191015561127261125660cc546126e8565b918260cc5560405192835260c0602084015260c0830190611e96565b602435604083015260443560608301526000608083015281810360a0830152825180825260208201916020808360051b8301019501926000915b8383106112db577f55500fe29e91f92fed80da549e90458d7221bd7acae8c8e5f68e3ff23dfdab7886880387a1005b90919293956020806112f9600193601f198682030187528a51611e96565b980193019301919392906112ac565b80518051906001600160401b0382116105195761132586546121b9565b601f81116113eb575b50602090601f831160011461137b579282600194936020938695600092611370575b5050600019600383901b1c191690841b1787555b01940191019092611233565b015190508d80611350565b908660005260206000209160005b601f19851681106113d3575083602093600196938796938794601f198116106113ba575b505050811b018755611364565b015160001960f88460031b161c191690558d80806113ad565b91926020600181928685015181550194019201611389565b61141890876000526020600020601f850160051c8101916020861061141e575b601f0160051c0190612688565b8a61132e565b909150819061140b565b600585016000526020600020908382015b818301811061144957505061121d565b8061145560019261269f565b01611439565b80518051906001600160401b0382116105195761147886546121b9565b601f811161153e575b50602090601f83116001146114ce5792826001949360209386956000926114c3575b5050600019600383901b1c191690841b1787555b019401910190926111ec565b015190508d806114a3565b908660005260206000209160005b601f1985168110611526575083602093600196938796938794601f1981161061150d575b505050811b0187556114b7565b015160001960f88460031b161c191690558d8080611500565b919260206001819286850151815501940192016114dc565b61156a908760005260206000206005601f8601811c8201926020871061050f57601f01901c0190612688565b8a611481565b600485016000526020600020908382015b81830181106115915750506111d6565b8061159d60019261269f565b01611581565b01519050868061114e565b9250846000526020600020906000935b601f19841685106115ff576001945083601f198116106115e6575b505050811b018255611163565b015160001960f88460031b161c191690558680806115d9565b818101518355602094850194600190930192909101906115be565b61164690866000526020600020601f850160051c8101916020861061141e57601f0160051c0190612688565b87611137565b6040516328e89ebf60e21b8152336004820152602490fd5b3461072a5761076861167536612074565b906040519261168384611f02565b60008452612293565b3461072a5761076861169d36612074565b916116b06116ab843361232e565b612231565b6123f6565b3461072a576116c336612045565b903360005260c960205260ff604060002054161561164c578060005260ce6020523360018060a01b0360036040600020015416036106cd578060005260ce6020526002604060002001544210611bb8578060005260ce6020526005604060002060038101600160a01b60ff60a01b19825416179055018251600160401b8111610519578154818355808210611b89575b5060208401916000526020600020916000905b828210611a765785857f7ec14564eed3e841911f7412fd555aa022b64c2b1ae4b3da14fcacc8c0c4bf716020604051838152a160005b60cb54811015610768578060005260cf60205281600160406000200154146117cd575b6117c8906126e8565b61179c565b9060009060005b8360005260cf6020526002604060002001805482101561190c57600052602060002060405190816000600185811b8401015492611810846121b9565b93600181169081156118eb57506001146118a1575b50611839925003601f198101835282611f1d565b6020815191012061184a82876126f7565b51604051611875602082816118688183019687815193849201611e73565b8101038084520182611f1d565b5190201461188c575b611887906126e8565b6117d4565b91611899611887916126e8565b92905061187e565b90506001915084821b01016000528160206000206000905b8382106118d157505060206118399282010189611825565b6020919250806001915483858801015201910183916118b9565b90506020925061183994915060ff1916828401528015150282010189611825565b505091908260005260ce602052600660406000200154116117bf57600081815260cf602052604090205460ca805492916001600160a01b03169061194f846126e8565b90558015611a32577f09e140b64d52c323dccfb997f1b13b5bc9bb31ce58b3990fb4527b9bce6e5c4b6020846119a66119a06117c897600052606760205260018060a01b0360406000205416151590565b1561270b565b6000818152606760205260409020546119c9906001600160a01b031615156119a0565b836000526068825260406000206001815401905580600052606782526040600020846001600160601b0360a01b82541617905560405190808560007fddf252ad1be2c89b69c2b068fc378daa952ba7f163c4a11628f55a4df523b3ef8180a48152a290506117bf565b606460405162461bcd60e51b815260206004820152602060248201527f4552433732313a206d696e7420746f20746865207a65726f20616464726573736044820152fd5b80518051906001600160401b03821161051957611a9386546121b9565b90601f91828111611b59575b506020918311600114611aea579282600194936020938695600092611adf575b5050600019600383901b1c191690841b1787555b01940191019092611766565b015190508b80611abf565b908660005260206000209160005b601f1985168110611b4157509260209260019592869583601f19811610611b28575b505050831b83018755611ad3565b015160001960f88460031b161c191690558a8080611b1a565b91926020600181928685015181550194019201611af8565b611b83908860005260206000208480870160051c82019260208810610d59570160051c0190612688565b89611a9f565b8260005281602060002091820191015b818110611ba65750611753565b80611bb260019261269f565b01611b99565b6040516322984db760e11b8152600490fd5b3461072a57604036600319011261072a57611be3611ebb565b602435906001600160a01b038080611bfa85612196565b16921691808314611cf557803314908115611cd0575b5015611c6557600083815260696020526040902080546001600160a01b03191683179055611c3d83612196565b167f8c5be1e5ebec7d5bd14f71427d1e84f3dd0314c0f7b2291e5b200ac8c7c3b925600080a4005b60405162461bcd60e51b815260206004820152603d60248201527f4552433732313a20617070726f76652063616c6c6572206973206e6f7420746f60448201527f6b656e206f776e6572206f7220617070726f76656420666f7220616c6c0000006064820152608490fd5b9050600052606a60205260406000203360005260205260ff6040600020541684611c10565b60405162461bcd60e51b815260206004820152602160248201527f4552433732313a20617070726f76616c20746f2063757272656e74206f776e656044820152603960f91b6064820152608490fd5b3461072a57602036600319011261072a5760206110246004356121f3565b3461072a57600036600319011261072a576040516000606554611d84816121b9565b80845290600190818116908115610a715750600114611dad5761088184610a0281860382611f1d565b6065600090815292507f8ff97419363ffd7000167f130ef7168fbea05faf9251824ca5043f113cc6a7c75b828410611df0575050508101602001610a02826109f2565b80546020858701810191909152909301928101611dd8565b3461072a57602036600319011261072a576004359063ffffffff60e01b821680920361072a576020916380ac58cd60e01b8114908115611e62575b8115611e51575b5015158152f35b6301ffc9a760e01b14905083611e4a565b635b5e139f60e01b81149150611e43565b60005b838110611e865750506000910152565b8181015183820152602001611e76565b90602091611eaf81518092818552858086019101611e73565b601f01601f1916010190565b600435906001600160a01b038216820361072a57565b602435906001600160a01b038216820361072a57565b604081019081106001600160401b0382111761051957604052565b602081019081106001600160401b0382111761051957604052565b90601f801991011681019081106001600160401b0382111761051957604052565b6001600160401b0381116105195760051b60200190565b6001600160401b03811161051957601f01601f191660200190565b929192611f7c82611f55565b91611f8a6040519384611f1d565b82948184528183011161072a578281602093846000960137010152565b9080601f8301121561072a57816020611fc293359101611f70565b90565b9080601f8301121561072a57813590611fdd82611f3e565b92611feb6040519485611f1d565b828452602092838086019160051b8301019280841161072a57848301915b8483106120195750505050505090565b82356001600160401b03811161072a57869161203a84848094890101611fa7565b815201920191612009565b90604060031983011261072a5760043591602435906001600160401b03821161072a57611fc291600401611fc5565b606090600319011261072a576001600160a01b0390600435828116810361072a5791602435908116810361072a579060443590565b6097546001600160a01b031633036120bd57565b606460405162461bcd60e51b815260206004820152602060248201527f4f776e61626c653a2063616c6c6572206973206e6f7420746865206f776e65726044820152fd5b609780546001600160a01b039283166001600160a01b0319821681179092559091167f8be0079c531659141344cd1fd0a4f28419497f9722a3daafe3b4186f6b6457e0600080a3565b1561215157565b60405162461bcd60e51b815260206004820152601860248201527f4552433732313a20696e76616c696420746f6b656e20494400000000000000006044820152606490fd5b6000908152606760205260409020546001600160a01b0316611fc281151561214a565b90600182811c921680156121e9575b60208310146121d357565b634e487b7160e01b600052602260045260246000fd5b91607f16916121c8565b600081815260676020526040902054612216906001600160a01b0316151561214a565b6000908152606960205260409020546001600160a01b031690565b1561223857565b60405162461bcd60e51b815260206004820152602d60248201527f4552433732313a2063616c6c6572206973206e6f7420746f6b656e206f776e6560448201526c1c881bdc88185c1c1c9bdd9959609a1b6064820152608490fd5b906122b79392916122a76116ab843361232e565b6122b28383836123f6565b612507565b156122be57565b60405162461bcd60e51b8152806122d7600482016122db565b0390fd5b60809060208152603260208201527f4552433732313a207472616e7366657220746f206e6f6e20455243373231526560408201527131b2b4bb32b91034b6b83632b6b2b73a32b960711b60608201520190565b906001600160a01b03808061234284612196565b16931691838314938415612375575b50831561235f575b50505090565b61236b919293506121f3565b1614388080612359565b909350600052606a60205260406000208260005260205260ff604060002054169238612351565b156123a357565b60405162461bcd60e51b815260206004820152602560248201527f4552433732313a207472616e736665722066726f6d20696e636f72726563742060448201526437bbb732b960d91b6064820152608490fd5b9061241e9161240484612196565b6001600160a01b039391841692849290918316841461239c565b169182156124b6578161243b9161243486612196565b161461239c565b7fddf252ad1be2c89b69c2b068fc378daa952ba7f163c4a11628f55a4df523b3ef60008481526069602052604081206001600160601b0360a01b9081815416905583825260686020526040822060001981540190558482526040822060018154019055858252606760205284604083209182541617905580a4565b60405162461bcd60e51b8152602060048201526024808201527f4552433732313a207472616e7366657220746f20746865207a65726f206164646044820152637265737360e01b6064820152608490fd5b92939190803b1561261e57612559946040518092630a85bd0160e11b9485835233600484015260018060a01b03809816602484015260448301526080606483015281806020998a956084830190611e96565b03916000988991165af18491816125da575b506125c9575050503d6000146125c1573d61258581611f55565b906125936040519283611f1d565b81528091833d92013e5b805191826125be5760405162461bcd60e51b8152806122d7600482016122db565b01fd5b50606061259d565b6001600160e01b0319161492509050565b9091508581813d8311612617575b6125f28183611f1d565b8101031261261357516001600160e01b03198116810361261357903861256b565b8480fd5b503d6125e8565b5050915050600190565b1561262f57565b60405162461bcd60e51b815260206004820152602b60248201527f496e697469616c697a61626c653a20636f6e7472616374206973206e6f74206960448201526a6e697469616c697a696e6760a81b6064820152608490fd5b818110612693575050565b60008155600101612688565b6126a981546121b9565b90816126b3575050565b81601f600093116001146126c5575055565b9080839182526126e4601f60208420940160051c840160018501612688565b5555565b60001981146106335760010190565b80518210156102c25760209160051b010190565b1561271257565b60405162461bcd60e51b815260206004820152601c60248201527f4552433732313a20746f6b656e20616c7265616479206d696e746564000000006044820152606490fdfea2646970667358221220590d6bcaece807bf9fbeba3102282b4f7e531453e8134fbd4916497a4322456364736f6c63430008140033",
  "linkReferences": {},
  "deployedLinkReferences": {}
}